:020000040100F9
:1000000000000220010400017527000155250001B0
:100010008B2700016B250001A127000100000000D3
:10002000000000000000000000000000B7270001F1
:10003000BD27000100000000C32700016504000087
:100040003D3A0101493A0101553A010149060001D1
:100050004906000149060001490600014906000160
:100060004906000149060001490600014906000150
:100070004906000149060001490600014906000140
:100080004906000149060001490600014906000130
:100090004906000149060001490600014906000120
:1000A0004906000149060001490600014906000110
:1000B0004906000149060001490600014906000100
:1000C00049060001490600014906000149060001F0
:1000D00049060001490600014906000149060001E0
:1000E00049060001490600014906000149060001D0
:1000F00049060001490600014906000149060001C0
:100100004906000149060001490600019D4F010111
:10011000490600014906000149060001490600019F
:10012000490600014906000149060001490600018F
:10013000490600014906000149060001490600017F
:100140004906000149060001A53A0101BD3A010135
:10015000B13A0101C93A0101993A01014906000188
:100160004906000149060001490600013F49010115
:1001700049060001490600014B49010149060001F9
:10018000490600014906000149060001490600012F
:100190001964010185640101F16401015D650101DA
:1001A00081670101A5690101116A0101356C010135
:1001B00049060001F947010149060001490600010D
:1001C000490600013D61010149060001490600019F
:1001D000490600012D620101B54A010149060001ED
:1001E0004906000149060001A94A0101CD4A010161
:1001F000C14A010149060001490600014906000102
:1002000049060001490600014906000149060001AE
:10021000CD560101490600014906000149060001C9
:10022000A9440101B5440101490600014906000144
:100230002D1D010149060001490600014906000182
:10024000490600014906000149060001091D010196
:10025000151D0101211D010149060001490600018A
:10026000490600014906000149060001490600014E
:10027000D1510101DD51010149060001490600018A
:10028000615F0101490600014961010155610101F8
:10029000490600014906000149060001490600011E
:1002A000490600014906000149060001490600010E
:1002B000E5590101F1590101FD590101C15901013E
:1002C000CD590101D9590101490600014906000132
:1002D00049060001490600014906000149060001DE
:1002E00049060001490600014906000149060001CE
:1002F0004906000149060001C14401014906000107
:100300004906000175200101812001018D200101B4
:1003100099200101A5200101B1200101BD200101A9
:10032000C9200101490600014906000149060001F2
:100330004906000149060001490600012159010151
:10034000490600014906000149060001490600016D
:10035000490600014906000149060001490600015D
:10036000490600014906000149060001490600014D
:10037000490600014906000149060001490600013D
:10038000490600014906000149060001490600012D
:10039000490600014906000149060001490600011D
:1003A000490600014906000149060001490600010D
:1003B00049060001490600014906000149060001FD
:1003C00049060001490600014906000149060001ED
:1003D00049060001490600014906000149060001DD
:1003E00049060001490600014906000149060001CD
:1003F000490600014906000149060001FFFFFFFF11
:1004000072B64FF000014FF000024FF000034FF0C2
:1004100000044FF000054FF000064FF00007B8460B
:10042000B946BA46BB46BC466D486E4901600A688B
:1004300013466D480168C1F34241002940F0BE8077
:100440006A486B4901606B486B4901606B4840F634
:100450008A2101606A4801606A4801606A4840F682
:10046000AA21016069484FF400010160BFF34F8F7A
:10047000BFF36F8F66480168664A114206D111F0DA
:10048000010F07D1644C002526460AE0634C002585
:10049000264606E0614C6248056805F003052D0418
:1004A000002660484FF08077016811F0020F02D0FB
:1004B000013FF9D180E0002101605B4801605B48A9
:1004C00004605B480560BFF34F8FBFF36F8F45F04B
:1004D0000101016053484FF08077016811F0040F6B
:1004E0006AD111F0010F02D1013FF6D164E0002E74
:1004F00005D04D48016801EA0601B1425CD1494886
:1005000000210160BFF34F8FBFF36F8F4948002177
:1005100001600121416038218160474A9168C160D2
:1005200091690161D2F808114161D2F80812816124
:10053000D2F80813C161D2F808140162D2F814117C
:100540004162D2F814128162D2F81413C162D2F857
:100550001414016301699161416AC2F81411816A3E
:10056000C2F81412C16AC2F81413016BC2F8141451
:1005700001214163BFF34F8FBFF36F8F2F4901609C
:10058000BFF34F8FBFF36F8F18486FF0704101605A
:1005900018482B490160194840F6CF71016018488E
:1005A000016018480160184840F6FF710160BFF310
:1005B0004F8FBFF36F8F01E072B6FEE71A464FF020
:1005C00000004FF00001A2F104021060A2F1040249
:1005D00001F101010829F8D183F30888194800477F
:1005E00008ED00E000000001040008E020200740C2
:1005F000AAAAAA0A24200740AAAB2A00282007405A
:10060000302007403820074030210740FC4102409D
:10061000086004408EC000E0BFFF0700FFFF070036
:10062000105004404CF0074054F0074050F0074091
:1006300048F00740C0000C2100600440545347526A
:10064000FFFF3F00291D0001FFF7FEBF81F00041C1
:1006500002E000BF83F0004330B54FEA41044FEAA7
:10066000430594EA050F08BF90EA020F1FBF54EA42
:10067000000C55EA020C7FEA645C7FEA655C00F0DE
:10068000E2804FEA5454D4EB5555B8BF6D420CDDAF
:100690002C4480EA020281EA030382EA000083EA32
:1006A000010180EA020281EA0303362D88BF30BDD2
:1006B00011F0004F4FEA01314FF4801C4CEA113128
:1006C00002D0404261EB410113F0004F4FEA033387
:1006D0004CEA133302D0524263EB430394EA050F12
:1006E00000F0A780A4F10104D5F1200E0DDB02FA81
:1006F0000EFC22FA05F2801841F1000103FA0EF215
:10070000801843FA05F359410EE0A5F120050EF1DA
:10071000200E012A03FA0EFC28BF4CF0020C43FA0B
:1007200005F3C01851EBE37101F0004507D54FF018
:10073000000EDCF1000C7EEB00006EEB0101B1F568
:10074000801F1BD3B1F5001F0CD349085FEA3000AE
:100750004FEA3C0C04F101044FEA445212F5800FB9
:1007600080F09A80BCF1004F08BF5FEA500C50F156
:10077000000041EB045141EA050130BD5FEA4C0C39
:10078000404141EB0101013C28BFB1F5801FE9D296
:1007900091F0000F04BF01460020B1FA81F308BFB9
:1007A0002033A3F10B03B3F120020CDA0C3208DD85
:1007B00002F1140CC2F10C0201FA0CF021FA02F160
:1007C0000CE002F11402D8BFC2F1200C01FA02F1D0
:1007D00020FA0CFCDCBF41EA0C019040E41AA2BFF5
:1007E00001EB0451294330BD6FEA04041F3C1CDABD
:1007F0000C340EDC04F11404C4F1200220FA04F0DD
:1008000001FA02F340EA030021FA04F345EA030186
:1008100030BDC4F10C04C4F1200220FA02F001FA48
:1008200004F340EA0300294630BD21FA04F02946CA
:1008300030BD94F0000F83F4801306BF81F4801163
:100840000134013D4EE77FEA645C18BF7FEA655CD6
:1008500029D094EA050F08BF90EA020F05D054EAA8
:10086000000C04BF1946104630BD91EA030F1EBFAD
:100870000021002030BD5FEA545C05D140004941B1
:1008800028BF41F0004130BD14F580043CBF01F5A4
:10089000801130BD01F0004545F0FE4141F470018A
:1008A0004FF0000030BD7FEA645C1ABF1946104665
:1008B0007FEA655C1CBF0B46024650EA013406BF66
:1008C00052EA033591EA030F41F4002130BD00BF25
:1008D00090F0000F04BF0021704730B54FF48064E2
:1008E00004F132044FF000054FF0000150E700BF63
:1008F00090F0000F04BF0021704730B54FF48064C2
:1009000004F1320410F0004548BF40424FF00001AE
:100910003EE700BF42004FEAE2014FEA31014FEAF1
:1009200002701FBF12F07F4393F07F4F81F0605140
:10093000704732F07F4208BF704793F07F4F04BF8B
:1009400041F40021704730B54FF4607401F0004568
:1009500021F000411CE700BF50EA010208BF7047C8
:1009600030B54FF000050AE050EA010208BF7047B9
:1009700030B511F0004502D5404261EB41014FF422
:10098000806404F132045FEA915C3FF4D8AE4FF02A
:1009900003025FEADC0C18BF03325FEADC0C18BF0D
:1009A000033202EBDC02C2F1200300FA03FC20FA5E
:1009B00002F001FA03FE40EA0E0021FA02F11444AB
:1009C000BDE600BF70B54FF0FF0C4CF4E06C1CEAC4
:1009D00011541DBF1CEA135594EA0C0F95EA0C0F35
:1009E00000F0DEF82C4481EA030621EA4C5123EAA8
:1009F0004C5350EA013518BF52EA033541F48011D7
:100A000043F4801338D0A0FB02CE4FF00005E1FB89
:100A100002E506F00042E0FB03E54FF00006E1FBD3
:100A200003569CF0000F18BF4EF0010EA4F1FF0416
:100A3000B6F5007F64F5407404D25FEA4E0E6D4156
:100A400046EB060642EAC62141EA55514FEAC52067
:100A500040EA5E504FEACE2EB4F1FD0C88BFBCF5E3
:100A6000E06F1ED8BEF1004F08BF5FEA500E50F194
:100A7000000041EB045170BD06F0004646EA01015A
:100A800040EA020081EA0301B4EB5C04C2BFD4EB8C
:100A90000C0541EA045170BD41F480114FF0000E85
:100AA000013C00F3AB8014F1360FDEBF002001F0F3
:100AB000004170BDC4F10004203C35DA0C341BDC6D
:100AC00004F11404C4F1200500FA05F320FA04F03F
:100AD00001FA05F240EA020001F0004221F0004173
:100AE00010EBD37021FA04F642EB06015EEA430EE6
:100AF00008BF20EAD37070BDC4F10C04C4F1200516
:100B000000FA04F320FA05F001FA04F240EA0200C8
:100B100001F0004110EBD37041F100015EEA430E99
:100B200008BF20EAD37070BDC4F1200500FA05F2B9
:100B30004EEA020E20FA04F301FA05F243EA020338
:100B400021FA04F001F0004121FA04F220EA020047
:100B500000EBD3705EEA430E08BF20EAD37070BD8D
:100B600094F0000F0FD101F00046400041EB01016D
:100B700011F4801F08BF013CF7D041EA060195F04F
:100B8000000F18BF704703F00046520043EB030309
:100B900013F4801F08BF013DF7D043EA06037047F6
:100BA00094EA0C0F0CEA135518BF95EA0C0F0CD001
:100BB00050EA410618BF52EA4306D1D181EA030147
:100BC00001F000414FF0000070BD50EA410606BF41
:100BD0001046194652EA430619D094EA0C0F02D186
:100BE00050EA013613D195EA0C0F05D152EA0336CB
:100BF0001CBF104619460AD181EA030101F00041E9
:100C000041F0FE4141F470014FF0000070BD41F031
:100C1000FE4141F4780170BD70B54FF0FF0C4CF40B
:100C2000E06C1CEA11541DBF1CEA135594EA0C0F2A
:100C300095EA0C0F00F0A7F8A4EB050481EA030E77
:100C400052EA03354FEA013100F088804FEA03335E
:100C50004FF0805545EA131343EA12634FEA02222C
:100C600045EA111545EA10654FEA00260EF00041ED
:100C70009D4208BF964244F1FD0404F5407402D23F
:100C80005B084FEA3202B61A65EB03055B084FEAD0
:100C900032024FF480104FF4002CB6EB020E75EBCD
:100CA000030E22BFB61A754640EA0C005B084FEAF5
:100CB0003202B6EB020E75EB030E22BFB61A754672
:100CC00040EA5C005B084FEA3202B6EB020E75EBBD
:100CD000030E22BFB61A754640EA9C005B084FEA35
:100CE0003202B6EB020E75EB030E22BFB61A754642
:100CF00040EADC0055EA060E18D04FEA051545EA31
:100D000016754FEA06164FEAC30343EA52734FEAD9
:100D1000C2025FEA1C1CC0D111F4801F0BD141EA52
:100D200000014FF000004FF0004CB6E711F4801FB7
:100D300004BF01430020B4F1FD0C88BFBCF5E06F97
:100D40003FF6AFAEB5EB030C04BFB6EB020C5FEAA7
:100D5000500C50F1000041EB045170BD0EF0004EFC
:100D60004EEA113114EB5C04C2BFD4EB0C0541EA2E
:100D7000045170BD41F480114FF0000E013C90E62B
:100D800045EA060E8DE60CEA135594EA0C0F08BFEF
:100D900095EA0C0F3FF43BAF94EA0C0F0AD150EAEE
:100DA00001347FF434AF95EA0C0F7FF425AF104681
:100DB00019462CE795EA0C0F06D152EA03353FF4A9
:100DC000FDAE1046194622E750EA410618BF52EA26
:100DD00043067FF4C5AE50EA41047FF40DAF52EAFA
:100DE00043057FF4EBAE12E74FF0FF3C06E000BF97
:100DF0004FF0010C02E000BF4FF0010C4DF804CDA4
:100E00004FEA410C7FEA6C5C4FEA430C18BF7FEA63
:100E10006C5C1BD001B050EA410C0CBF52EA430C91
:100E200091EA030F02BF90EA020F0020704710F111
:100E3000000F91EA030F58BF994208BF90422CBFA0
:100E4000D8176FEAE37040F0010070474FEA410C99
:100E50007FEA6C5C02D150EA013C07D14FEA430CB7
:100E60007FEA6C5CD6D152EA033CD3D05DF8040B28
:100E7000704700BF8446104662468C46194663465A
:100E800000E000BF01B5FFF7B7FF002848BF10F131
:100E9000000F01BD4DF808EDFFF7F4FF0CBF012076
:100EA00000205DF808FB00BF4DF808EDFFF7EAFFF2
:100EB00034BF012000205DF808FB00BF4DF808EDAD
:100EC000FFF7E0FF94BF012000205DF808FB00BFA2
:100ED0004DF808EDFFF7CEFF94BF012000205DF82C
:100EE00008FB00BF4DF808EDFFF7C4FF34BF012039
:100EF00000205DF808FB00BF4FEA410212F5001226
:100F000015D211D56FF47873B3EB625212D94FEA50
:100F1000C12343F0004343EA505311F0004F23FA3A
:100F200002F018BF404270474FF00000704750EA8F
:100F3000013005D111F0004008BF6FF0004070474C
:100F40004FF00000704700BF4A0011D212F50012A6
:100F500011D20DD56FF47873B3EB62520ED44FEA11
:100F6000C12343F0004343EA505323FA02F0704791
:100F70004FF00000704750EA013002D14FF0FF30CF
:100F800070474FF00000704780F0004002E000BF63
:100F900081F0004142001FBF5FEA410392EA030F64
:100FA0007FEA226C7FEA236C6AD04FEA1262D2EBAE
:100FB0001363C1BFD218414048404140B8BF5B42B3
:100FC000192B88BF704710F0004F40F4000020F04C
:100FD0007F4018BF404211F0004F41F4000121F062
:100FE0007F4118BF494292EA030F3FD0A2F10102AC
:100FF00041FA03FC10EB0C00C3F1200301FA03F1EA
:1010000000F0004302D5494260EB4000B0F5000F0C
:1010100013D3B0F1807F06D340084FEA310102F1CB
:101020000102FE2A51D2B1F1004F40EBC25008BF7D
:1010300020F0010040EA03007047490040EB000047
:10104000013A28BFB0F5000FEDD2B0FA80FCACF148
:10105000080CB2EB0C0200FA0CF0AABF00EBC25075
:1010600052421843BCBFD0401843704792F0000F63
:1010700081F4000106BF80F400000132013BB5E7B6
:101080004FEA41037FEA226C18BF7FEA236C21D02C
:1010900092EA030F04D092F0000F08BF0846704791
:1010A00090EA010F1CBF0020704712F07F4F04D15F
:1010B000400028BF40F00040704712F100723CBF72
:1010C00000F50000704700F0004343F0FE4040F49C
:1010D000000070477FEA226216BF08467FEA23635A
:1010E0000146420206BF5FEA412390EA010F40F445
:1010F000800070474FF0000304E000BF10F0004391
:1011000048BF40425FEA000C08BF704743F0964377
:1011100001464FF000001CE050EA010208BF704792
:101120004FF000030AE000BF50EA010208BF704719
:1011300011F0004302D5404261EB41015FEA010C2E
:1011400002BF84460146002043F0B64308BFA3F126
:101150008053A3F50003BCFA8CF2083AA3EBC25308
:1011600010DB01FA02FC634400FA02FCC2F1200227
:10117000BCF1004F20FA02F243EB020008BF20F05E
:101180000100704702F1200201FA02FCC2F12002C4
:1011900050EA4C0021FA02F243EB020008BF20EAB9
:1011A000DC7070474FF0FF0C1CEAD0521EBF1CEAE7
:1011B000D15392EA0C0F93EA0C0F6FD01A4480EAD5
:1011C000010C400218BF5FEA41211ED04FF00063BE
:1011D00043EA501043EA5111A0FB01310CF00040EA
:1011E000B1F5000F3EBF490041EAD3715B0040EA10
:1011F000010062F17F02FD2A1DD8B3F1004F40EBE0
:10120000C25008BF20F00100704790F0000F0CF0B2
:10121000004C08BF49024CEA502040EA51207F3A76
:10122000C2BFD2F1FF0340EAC250704740F4000051
:101230004FF00003013A5DDC12F1190FDCBF00F042
:1012400000407047C2F10002410021FA02F1C2F1F0
:10125000200200FA02FC5FEA310040F1000053EA8C
:101260004C0308BF20EADC70704792F0000F00F0DA
:10127000004C02BF400010F4000F013AF9D040EAE0
:101280000C0093F0000F01F0004C02BF490011F474
:10129000000F013BF9D041EA0C018FE70CEAD15372
:1012A00092EA0C0F18BF93EA0C0F0AD030F0004CF2
:1012B00018BF31F0004CD8D180EA010000F00040A6
:1012C000704790F0000F17BF90F0004F084691F064
:1012D000000F91F0004F14D092EA0C0F01D142029E
:1012E0000FD193EA0C0F03D14B0218BF084608D167
:1012F00080EA010000F0004040F0FE4040F40000B1
:10130000704740F0FE4040F4400070474FF0FF0C43
:101310001CEAD0521EBF1CEAD15392EA0C0F93EA8A
:101320000C0F69D0A2EB030280EA010C49024FEADC
:10133000402037D04FF0805343EA111143EA101395
:101340000CF000408B4238BF5B0042F17D024FF44D
:10135000000C8B4224BF5B1A40EA0C00B3EB510F28
:1013600024BFA3EB510340EA5C00B3EB910F24BF11
:10137000A3EB910340EA9C00B3EBD10F24BFA3EB96
:10138000D10340EADC001B0118BF5FEA1C1CE0D15E
:10139000FD2A3FF650AF8B4240EBC25008BF20F011
:1013A000010070470CF0004C4CEA50207F32C2BF65
:1013B000D2F1FF0340EAC250704740F400004FF002
:1013C0000003013A37E792F0000F00F0004C02BF33
:1013D000400010F4000F013AF9D040EA0C0093F0FD
:1013E000000F01F0004C02BF490011F4000F013B57
:1013F000F9D041EA0C0195E70CEAD15392EA0C0FBF
:1014000008D142027FF47DAF93EA0C0F7FF470AFF6
:10141000084676E793EA0C0F04D14B023FF44CAF39
:1014200008466EE730F0004C18BF31F0004CCAD1CE
:1014300030F000427FF45CAF31F000437FF43CAF0A
:101440005FE700BF4FF0FF3C06E000BF4FF0010C2C
:1014500002E000BF4FF0010C4DF804CD4FEA40020E
:101460004FEA41037FEA226C18BF7FEA236C11D058
:1014700001B052EA530C18BF90EA010F58BFB2EB0B
:10148000030088BFC81738BF6FEAE17018BF40F08B
:10149000010070477FEA226C02D15FEA402C05D13F
:1014A0007FEA236CE4D15FEA412CE1D05DF8040BC4
:1014B000704700BF844608466146FFE70FB5FFF757
:1014C000C9FF002848BF10F1000F0FBD4DF808ED0F
:1014D000FFF7F4FF0CBF012000205DF808FB00BF00
:1014E0004DF808EDFFF7EAFF34BF012000205DF85A
:1014F00008FB00BF4DF808EDFFF7E0FF94BF0120A7
:1015000000205DF808FB00BF4DF808EDFFF7D2FFA3
:1015100094BF012000205DF808FB00BF4DF808EDE6
:10152000FFF7C8FF34BF012000205DF808FB00BFB3
:1015300042000ED2B2F1FE4F0BD34FF09E03B3EB3D
:10154000126209D44FEA002343F0004323FA02F069
:1015500070474FF00000704712F1610F01D1420255
:1015600002D14FF0FF3070474FF00000704700BFCE
:1015700053B94AB9002908BF00281CBF4FF0FF31FA
:101580004FF0FF3000F06CB9ADF1080C6DE904CEFE
:1015900000F006F8DDF804E0DDE9022304B070474E
:1015A0002DE9F047089E0D4604468E46002B40F07C
:1015B00082808A42174646D9B2FA82F24AB1C2F113
:1015C000200105FA02F320FA01F1974041EA030EE7
:1015D00094404FEA1748230CBEFBF8FCB9B208FB55
:1015E0001CEE43EA0E430CFB01F098420AD9FB18AB
:1015F0000CF1FF3580F01681984240F21381ACF176
:10160000020C3B441B1AA4B2B3FBF8F008FB1033E6
:1016100044EA034400FB01F1A14209D93C1900F15D
:10162000FF3380F00181A14240F2FE8002383C4449
:10163000641A40EA0C4000211EB1D4400023C6E9E0
:101640000043BDE8F08702B9FFDEB2FA82F2002A59
:101650004FD1CB1B4FEA174E1FFA87F80121B3FB7E
:10166000FEFC250C0EFB1C3345EA034508FB0CF37E
:10167000AB4207D97D190CF1FF3002D2AB4200F228
:10168000E7808446ED1AA3B2B5FBFEF00EFB1055C1
:1016900043EA054408FB00F8A04507D93C1900F1CE
:1016A000FF3302D2A04500F2D7801846A4EB08040D
:1016B00040EA0C40C0E78B4208D9002E00F0AF8012
:1016C0000021C6E900050846BDE8F087B3FA83F1BA
:1016D00000294BD1AB4202D3824200F2B780841A78
:1016E00065EB030301209E46002EAAD0C6E9004EFA
:1016F000A7E7C2F1200C01FA02F3974020FA0CF0A0
:101700004FEA174E21FA0CFC1843BCFBFEF1050C06
:101710000EFB11CC1FFA87F845EA0C4501FB08F3D4
:10172000AB4204FA02F409D97D1901F1FF3C80F0C3
:101730008B80AB4240F2888002393D44EB1A85B27F
:10174000B3FBFEF00EFB103345EA034500FB08F344
:10175000AB4207D97D1900F1FF3C71D2AB426FD982
:1017600002383D44EB1A40EA014178E7C1F1200C10
:101770008B4022FA0CF71F4320FA0CF405FA01F310
:101780004FEA174E25FA0CF51C43230CB5FBFEF966
:101790001FFA87F80EFB195543EA054509FB08FABD
:1017A000AA4502FA01F200FA01F308D97D1909F1FC
:1017B000FF3047D2AA4545D9A9F102093D44A5EB1E
:1017C0000A05A4B2B5FBFEF00EFB105544EA054431
:1017D00000FB08F8A04507D93C1900F1FF352DD2D0
:1017E000A0452BD902383C4440EA0940A4EB080448
:1017F000A0FB02894C45C6464D4619D316D05EB1B2
:10180000B3EB0E0264EB050404FA0CFCCA404CEA8C
:101810000202CC40C6E900240021BDE8F087314631
:1018200030460EE7AC46EDE6184601E74345E6D202
:10183000B8EB020E69EB07050138E0E72846D3E76D
:1018400060468FE78146BAE7614677E708464BE78F
:10185000ACF1020C3D4415E702383C4426E700BFDA
:10186000704700BF844641EA000313F003036DD1C3
:10187000403A41D351F8043B40F8043B51F8043B53
:1018800040F8043B51F8043B40F8043B51F8043B5A
:1018900040F8043B51F8043B40F8043B51F8043B4A
:1018A00040F8043B51F8043B40F8043B51F8043B3A
:1018B00040F8043B51F8043B40F8043B51F8043B2A
:1018C00040F8043B51F8043B40F8043B51F8043B1A
:1018D00040F8043B51F8043B40F8043B51F8043B0A
:1018E00040F8043B51F8043B40F8043B51F8043BFA
:1018F00040F8043B403ABDD2303211D351F8043B9A
:1019000040F8043B51F8043B40F8043B51F8043BD9
:1019100040F8043B51F8043B40F8043B103AEDD248
:101920000C3205D351F8043B40F8043B043AF9D299
:10193000043208D0D2071CBF11F8013B00F8013B6C
:1019400001D30B8803806046704700BF082A13D379
:101950008B078DD010F003038AD0C3F10403D21A91
:10196000DB071CBF11F8013B00F8013B80D331F8C5
:10197000023B20F8023B7BE7043AD9D3013A11F845
:10198000013B00F8013BF9D20B7803704B784370B0
:101990008B7883706046704780B582B000AF786006
:1019A000786800F00BF800BF0837BD4680BD80B5F1
:1019B00000AF00F023F800BF80BD000080B483B00A
:1019C00000AF78600C4B00221A600B4B00229A602B
:1019D0007B685B68084A23F07F4353607B681B7A0F
:1019E0009B0003F00403044A43F00203136000BFAA
:1019F0000C37BD4680BC704710E000E080B400AFFB
:101A0000044B1B68034A43F00103136000BFBD464B
:101A100080BC704710E000E080B400AF034B0022B0
:101A20001A6000BFBD4680BC704700BF00000020A8
:101A300080B582B000AF1D4B1B6801331B4A136099
:101A400000237B6027E0194B1A68194879680B4618
:101A50005B000B449B0003441B88B2FBF3F103FBC8
:101A600001F3D31A002B13D111497A6813465B0096
:101A700013449B000B44023301221A700C497A680C
:101A800013465B0013449B000B4404331B689847C8
:101A90007B6801337B607B68062BD4D900BF00BF15
:101AA000BFF34F8F00BF0837BD4680BD0000002048
:101AB0000400002080B400AF00BFBD4680BC70476A
:101AC00090B482B000AF0446084611461A46234639
:101AD000FB8003467B710B463B711346FB70002372
:101AE00018460837BD4690BC704790B482B000AF2E
:101AF0000446084611461A462346FB8003467B717E
:101B00000B463B711346FB70002318460837BD4651
:101B100090BC704780B483B000AF7860396005E056
:101B20007B6800221A607B6804337B607A683B68BC
:101B30009A42F5D300BF00BF0C37BD4680BC70474A
:101B400080B485B000AFF860B9607A6009E07B6866
:101B50001A68FB681A60FB680433FB607B68043317
:101B60007B60FA68BB689A42F1D300BF00BF1437AC
:101B7000BD4680BC7047000080B485B000AF78607F
:101B80008023FB6008E07B681B6803F40063002B84
:101B900006D0FB68013BFB60FB68002BF3D100E043
:101BA00000BFFB68002B12D000BF7B681B6803F4EA
:101BB0008063002BF9D07B6804331A460F4B136007
:101BC00000BF7B681B6803F40063002BF9D07B68BF
:101BD0004FF4C9521A607B6808331A464FF6FF73F8
:101BE000136000BF7B681B6803F48063002BF9D08F
:101BF00000BF00BF1437BD4680BC7047821918086B
:101C000080B584B000AF2A4B1B685B0C03F0070360
:101C1000FB60FB68DBB2002B1FD126492648FFF78B
:101C200079FF26492648FFF775FF26492648FFF722
:101C300071FF26492648FFF76DFF264A26492748A7
:101C4000FFF77EFF264A27492748FFF779FF274AF3
:101C500027492848FFF774FF0FE0154B1B685B0C02
:101C600003F00703BB60BB68DBB2012B05D0104B50
:101C70001B685B0C03F007037B601F491F48FFF7DD
:101C800049FF1F4A1F492048FFF75AFF1F4A2049B2
:101C90002048FFF755FF204A20492148FFF750FF11
:101CA000204B1F4A1A6000BF1037BD4680BD00BFE1
:101CB000040008E0981A01218027002184120521E0
:101CC000400404210000082100000821A423082169
:101CD00040010821049408010C2700210000002184
:101CE00020BB0801040404210000042140BF0801B6
:101CF0003C01082100000821580000205800002065
:101D0000AC93080158000020000000209C8D0801C1
:101D1000100A0000000400000000000100040000A0
:101D20000000000008ED00E080B582B000AF184B65
:101D30004FF080721A60174B00221A60164B1B6816
:101D40005B0C03F007033B603B68DBB27B607B68A6
:101D5000002B03D11148FFF70FFF13E07B68012B25
:101D600003D10F48FFF708FF0CE07B68022B03D17B
:101D70000C48FFF701FF05E07B68032B02D10A48FE
:101D8000FFF7FAFEFFF73CFF62B67EF081FEFEE74A
:101D9000FCED00E0041000E0040008E00020024038
:101DA00000304340004043400050434080B483B083
:101DB00000AF78607B681B6818460C37BD4680BC56
:101DC0007047000080B582B000AF78601F4B1B6881
:101DD0001F4A934214D11D4B5B68012B10D11B4B42
:101DE0009B68382B0CD17B68032B06D8174A7B687D
:101DF00004339B0013445B6823E0144BDB6820E052
:101E00007B68002B04D11348FFF7D0FF034618E08E
:101E10007B68012B04D11048FFF7C8FF034610E090
:101E20007B68022B04D10D48FFF7C0FF034608E092
:101E30007B68032B04D10A48FFF7B8FF034600E094
:101E4000002318460837BD4680BD00BFC0000C21E6
:101E50005453475208610440086204400863044038
:101E60000864044080B485B000AF78607B680022CD
:101E70001A637B6800225A637B6800229A650023FC
:101E8000FB730EE0FA7B7B680E32002143F82210D0
:101E9000FA7B7B681232002143F82210FB7B01336E
:101EA000FB73FB7B032BEDD900BF00BF1437BD468E
:101EB00080BC704780B485B000AF78600B46FB7083
:101EC000FB787A6853407B600023FB7310E07B68EB
:101ED00003F00103002B05D07B685A08094B5340DF
:101EE0007B6002E07B685B087B60FB7B0133FB73FC
:101EF000FB7B072BEBD97B6818461437BD4680BCAB
:101F0000704700BF2083B8ED80B586B000AFF860A1
:101F1000B9607A6000237B610CE0BA687B69134486
:101F20001B78DBB21946F868FFF7C4FFF8607B69DD
:101F300001337B617A697B689A42EED3FB6818466D
:101F40001837BD4680BD80B584B000AF78604FF0D3
:101F5000FF33FB607B68043304221946F868FFF7FF
:101F6000D3FFF8607B680C3398221946F868FFF7B6
:101F7000CBFFF860FB68DB4318461037BD4680BDD9
:101F800090B583B000AF78607B681B680F4A9342BE
:101F900001D0002316E07B689B889BB2012B04D103
:101FA0007B68DB889BB2A42B01D000230AE07B680E
:101FB0009C687868FFF7C7FF03469C4201D0002366
:101FC00000E0012318460C37BD4690BD48535243EC
:101FD00080B400AFBFF34F8FBFF36F8F00BFBD461C
:101FE00080BC7047B0B586B000AF786001237B61DC
:101FF0007B68002B00F088804548FFF7C1FF03464F
:10200000002B03D0424BDB6801337B61414B1B68E3
:102010005B0C03F00703FB60FB68DBB23B613C4BEE
:1020200000221A603A4B01229A80394BA422DA80AE
:10203000374B00229A60364A7B69D360344B0122C9
:102040001A617B681B68324A53617B685B68304A5F
:1020500093617B689B682E4AD3617B68DB682C4A5E
:1020600013627B681B692A4A5362294A3B6993625F
:102070003869FFF7A7FE0346254AD3622448FFF7D5
:10208000F1FE7B685B69224AD3657B689B69204AC5
:1020900013667B68DB691E4A53667B681B6A1C4AB1
:1020A00093667B685B6A1A4AD3667B689B6A184AA8
:1020B00013677B68DB6A164A53677B681B6B144A9D
:1020C00093677B685B6B124AD3677B689B6B104A94
:1020D000C2F880300E4A7B6802F1840403F13C05AB
:1020E0000FCD0FC495E80F0084E80F000848FFF7F4
:1020F0002AFF0346064A9360FFF76AFF044B064A2D
:102100001A60FFF765FF00E000BF1837BD46B0BD9D
:1021100000000C21040008E04853524380B400AF93
:1021200000BFBD4680BC704780B485B000AF78600A
:102130007B682033FB607B6803F00303002B03D133
:10214000FA687B689A4201D2002312E07B68B3F1FF
:10215000005F03D3FB68094A934207D97B68B3F158
:10216000045F05D3FB68064A934201D8012300E0CF
:10217000002318461437BD4680BC7047000002207B
:1021800000000E2180B400AF0D4B00225A640C4BAE
:1021900000229A640A4B0022DA64094B00221A6575
:1021A000074B00225A65064B00229A65044B002219
:1021B000DA65034B00221A6600BFBD4680BC70473B
:1021C0006C0C012180B584B000AF78607B68FB6047
:1021D000194AFB68D361F868FFF7A6FF0346164A61
:1021E0009361154B9B69002B20D07B681B68124ABA
:1021F00053647B685B68104A93647B689B680E4AF3
:10220000D3647B68DB680C4A13657B681B690A4AE8
:1022100053657B685B69084A93657B689B69064ADE
:10222000D3657B68DB69044A136601E0FFF7AAFF08
:1022300000BF1037BD4680BD6C0C012180B584B055
:1022400000AFF860B9607A603B601E4A7B6813603B
:102250001C4A3B6853601B4AFB689360194ABB6881
:10226000D360184B00221A61164B00225A61154A9E
:10227000FB691362144B5B68124A5362124BDB6AB0
:10228000104A9362104B9B6A0E4AD3620E4B5B6AF4
:102290000C4A13630C4B1B6B0A4A53630A4BDB6BF0
:1022A000084A9363084B5B6B064AD363064B9B6BF0
:1022B000044A1364B869FFF785FF00BF1037BD46B5
:1022C00080BD00BF6C0C012100ED00E0B0B598B0FE
:1022D00000AF204B9B687B601E4BDB68BB601D4BD7
:1022E0001B69FB601B4B5B693B611A4B9B697B6104
:1022F000184BDB69BB61174B1B6AFB61154B5B6AB3
:102300003B62144B9B6A7B62124BDB6ABB62114BD4
:102310001B6BFB620F4B5B6B3B630E4B9B6B7B63DF
:102320000C4BDB6BBB630B4B1B6CFB63094B07F16B
:10233000400403F144050FCD0FC495E80F0084E875
:102340000F003B1D1846FFF74DFE00BF6037BD462E
:10235000B0BD00BF6C0C012180B483B000AF7860C9
:102360007B6803F40043002B06D0064B9B6B064AA8
:102370001361054B01225A6100BF0C37BD4680BC7A
:10238000704700BF00ED00E06C0C012180B483B009
:1023900000AF78607B6803F08003002B06D0064B0B
:1023A0005B6B064A1361054B01225A6100BF0C3773
:1023B000BD4680BC704700BF00ED00E06C0C012101
:1023C00080B483B000AF78607B6803F48073002B27
:1023D00001D0154B23E07B6803F40073002B01D080
:1023E000124B1CE07B6803F48063002B01D0104B80
:1023F00015E07B6803F48053002B01D00D4B0EE0F9
:102400007B6803F40063002B01D00B4B07E07B6873
:1024100003F40053002B01D0084B00E0084B184692
:102420000C37BD4680BC7047540B08016C0B08018B
:10243000840B0801A00B0801C00B0801E40B080184
:102440000C0C080180B483B000AF78607B6803F0A7
:102450000103002B01D0124B1CE07B6803F0020348
:10246000002B01D00F4B15E07B6803F01003002B0D
:1024700001D00D4B0EE07B6803F00803002B01D068
:102480000A4B07E07B6803F02003002B01D0084BC8
:1024900000E0084B18460C37BD4680BC704700BFB3
:1024A000180C08013C0C0801580C0801800C0801AC
:1024B000A80C0801D80C080180B483B000AF786084
:1024C0007B6803F48033002B01D0154B23E07B683D
:1024D00003F40033002B01D0124B1CE07B6803F4A3
:1024E0008023002B01D0104B15E07B6803F4002300
:1024F000002B01D00D4B0EE07B6803F08073002BA6
:1025000001D00B4B07E07B6803F00073002B01D078
:10251000084B00E0084B18460C37BD4680BC70479E
:10252000E80C0801000D08011C0D0801380D080118
:10253000540D0801700D0801800D080180B400AF32
:10254000BFF34F8FBFF36F8F00BFFDE780B500AFC4
:10255000FFF7F4FF1EF0040F14BFEFF30980EFF351
:102560000880714600F090B800BF1EF0040F14BF41
:10257000EFF30980EFF30880714600F001B800BF67
:1025800090B587B002AF786039600D4B9B6AFB60F5
:10259000FB6803F47C54F868FFF712FF02463B68BF
:1025A00001937B6800931346064A21460420FFF7F7
:1025B00045FEF868FFF7D0FEFFF788FEFFF7C6FF7D
:1025C00000ED00E00C0C080190B587B002AF786018
:1025D00039600D4B9B6AFB60FB6803F03B04F868B5
:1025E000FFF730FF02463B6801937B680093134678
:1025F000064A21460320FFF721FEF868FFF7C6FED2
:10260000FFF764FEFFF7A2FF00ED00E08C0D08016C
:1026100090B587B002AF786039600C4B9B6AFB6065
:10262000FB680B4C1C40F868FFF746FF02463B680E
:1026300001937B6800931346064A21460520FFF765
:10264000FDFDFFF743FEFFF781FF00BF00ED00E057
:1026500000000F03800D080180B584B002AF7860E0
:1026600039603B6801937B680093054B054A002164
:102670000120FFF7E3FDFFF729FEFFF767FF00BF2B
:10268000980D0801B00D080180B586B002AF7860E2
:102690003960314BDB6AFB602F4B9B6ABB60FB6888
:1026A00003F08043002B27D0BB6803F47C53002B3E
:1026B00003D039687868FFF763FFBB6803F03B031A
:1026C000002B03D039687868FFF77EFFBA68234B88
:1026D0001340002B03D039687868FFF799FFFB6837
:1026E00003F080413B6801937B6800931C4B1D4ABB
:1026F0000220FFF7A3FD2BE0FB6803F00203002B91
:102700000CD0FB6803F002013B6801937B680093E7
:10271000154B144A0220FFF791FD19E0FB68002BCE
:102720000CDAFB6803F000413B6801937B6800937F
:102730000E4B0C4A0220FFF781FD09E03B68019334
:102740007B6800930A4B074A00210220FFF776FDC1
:10275000FFF7BCFDFFF7FAFE00ED00E000000F03FD
:10276000B40D0801D80D0801E40D0801FC0D0801A5
:10277000080E08011EF0040F14BFEFF30980EFF3F9
:1027800008807146FFF768BF00BF1EF0040F14BF3A
:10279000EFF30980EFF308807146FFF715BF00BF24
:1027A0001EF0040F14BFEFF30980EFF308807146A9
:1027B000FFF72EBF00BF80B400AFFEE780B400AFCC
:1027C000FEE780B400AFFEE780B483B000AF0346FD
:1027D000FB80FB8803F01F020649B7F906305B094E
:1027E000012000FA02F241F8232000BF0C37BD4659
:1027F00080BC704700E100E080B485B000AF0346C4
:102800000A46FB8013467B710523FB73B7F906303C
:10281000002B0DDA7A79FB7B02FA03F10D4AFB8873
:1028200003F00F03043BC9B213440A461A760BE0C7
:102830007A79FB7B02FA03F1074AB7F90630C9B28D
:1028400013440A4683F8002300BF1437BD4680BCFA
:10285000704700BF00ED00E000E100E00EB480B57D
:1028600099B002AF0346FB71012387F85730042368
:1028700087F84F3007F16803BB607EE27B6E93F907
:1028800000305C2B32D17B6E01337B667B6E93F91B
:1028900000306E2B13D0722B23D10D2387F82730F5
:1028A00007F12701F8794FF0FF33012215F060FF9F
:1028B000034687F857307B6E01337B665DE20A235F
:1028C00087F8273007F12701F8794FF0FF3301220D
:1028D00015F04EFF034687F857307B6E01337B6659
:1028E0004BE27B6E01337B6600BF46E27B6E93F961
:1028F0000030252B40F030827B6E01337B667B6E8F
:1029000093F900302E2B00F0AF812E2BC0F21E82E7
:10291000782B00F31B82582BC0F21882583B202BD7
:1029200000F2148201A252F823F000BF8D2A0001A8
:102930004D2D00014D2D00014D2D00014D2D0001AB
:102940004D2D00014D2D00014D2D00014D2D00019B
:102950004D2D00014D2D00014D2D0001E9290001F3
:102960004D2D0001ED2C00014D2D00014D2D0001DC
:102970004D2D00014D2D00014D2D0001DF2A0001DC
:102980004D2D00014D2D00014D2D00014D2D00015B
:102990004D2D00014D2D0001B12900014D2D0001EB
:1029A0004D2D00014D2D00014D2D00013B2A000150
:1029B000BB681A1DBA601B683B650CE0F8794FF0E4
:1029C000FF330122396D15F0D3FE034687F85730E7
:1029D0003B6D01333B653B6D93F90030002BEDD12E
:1029E0007B6E01337B66C8E1BB681A1DBA601B6849
:1029F000BB6407F10C0100230A22B86C00F0CEF989
:102A00000346002B15D107F10C033B650CE0F87968
:102A10004FF0FF330122396D15F0AAFE034687F807
:102A200057303B6D01333B653B6D93F90030002B14
:102A3000EDD17B6E01337B669FE1BB681A1DBA60E6
:102A40001B68BB6407F10C0100231022B86C00F076
:102A5000A5F90346002B15D107F10C033B650CE0EB
:102A6000F8794FF0FF330122396D15F081FE0346EE
:102A700087F857303B6D01333B653B6D93F9003070
:102A8000002BEDD17B6E01337B6676E1BB681A1DAE
:102A9000BA601B68BB6407F10C0101231022B86CFB
:102AA00000F07CF90346002B15D107F10C033B65C0
:102AB0000CE0F8794FF0FF330122396D15F058FE24
:102AC000034687F857303B6D01333B653B6D93F907
:102AD0000030002BEDD17B6E01337B664DE17B6EC8
:102AE000013393F900306C2B40F0B9807B6E0233D8
:102AF0007B667B6E93F90030782B0CD0782B00F33B
:102B0000AA80752B6DD0752B00F3A580582B35D07E
:102B1000642B66D09FE0BB68073323F0070303F103
:102B20000802BA60D3E90023C7E9102307F10C02B9
:102B300000230193002300931023D7E9100100F034
:102B40004DFB0346002B15D107F10C033B650CE050
:102B5000F8794FF0FF330122396D15F009FE034675
:102B600087F857303B6D01333B653B6D93F900307F
:102B7000002BEDD17B6E01337B6674E0BB680733BD
:102B800023F0070303F10802BA60D3E90023C7E981
:102B9000102307F10C02002301930123009310235B
:102BA000D7E9100100F01AFB0346002B15D107F1FD
:102BB0000C033B650CE0F8794FF0FF330122396DCF
:102BC00015F0D6FD034687F857303B6D01333B6562
:102BD0003B6D93F90030002BEDD17B6E01337B66AA
:102BE00041E0BB68073323F0070303F10802BA6032
:102BF000D3E90023C7E910237B6E93F90030642BDF
:102C00000CBF01230023DBB207F10C020193002368
:102C100000930A23D7E9100100F0E0FA0346002BE5
:102C200015D107F10C033B650CE0F8794FF0FF3349
:102C30000122396D15F09CFD034687F857303B6D36
:102C400001333B653B6D93F90030002BEDD17B6E7A
:102C500001337B6607E07B6E01337B6603E07B6EAE
:102C600001337B6689E088E07B6E01337B667B6E97
:102C700093F90030DBB2303B87F837307B6E01339D
:102C80007B667B6E93F90030662B63D1BB6807339C
:102C900023F0070303F10802BA60D3E90023C7E970
:102CA0000A2397F8373007F10C02D7E90A0100F040
:102CB00037F90346002B15D107F10C033B650CE0F7
:102CC000F8794FF0FF330122396D15F051FD0346BD
:102CD00087F857303B6D01333B653B6D93F900300E
:102CE000002BEDD17B6E01337B6633E0BB6807338D
:102CF00023F0070303F10802BA60D3E90023C7E910
:102D00000E2397F84F3007F10C02D7E90E0100F0BF
:102D100007F90346002B15D107F10C033B650CE0C6
:102D2000F8794FF0FF330122396D15F021FD03468C
:102D300087F857303B6D01333B653B6D93F90030AD
:102D4000002BEDD17B6E01337B6616E07B6E013389
:102D50007B6612E000BF10E0F8794FF0FF330122EC
:102D6000796E15F005FD034687F8573097F8573010
:102D7000002B09D17B6E01337B667B6E93F90030AB
:102D8000002B7FF47BAD00E000BF97F8573018466A
:102D90005C37BD46BDE8804003B07047B0B497B023
:102DA00000AFF860B96011461A460B46FB71134636
:102DB000BB71012387F85730564B07F130041D468D
:102DC0000FCD0FC42B682370534B07F11C041D4615
:102DD0000FCD0FC42B682370504A07F1100307CAA8
:102DE00003C31A800233120C1A70002387F84B3089
:102DF000002387F84A30002387F84330BB68002B54
:102E000003D1012387F857307DE0002387F857303E
:102E1000FB790A2B16D1FB68002B13DAFB685B42A7
:102E2000FB6497F84B305A1C87F84B201A46BB6856
:102E300013442D221A70012387F84A3007F110033A
:102E40003B650BE0BB79012B03D107F130033B65F8
:102E500002E007F11C033B65FB68FB64FA79FB6C3D
:102E6000B3FBF2F102FB01F29B1A3A6D1A4497F898
:102E70004B30591C87F84B101946BB680B4492F92C
:102E800000201A70FB79FA6CB2FBF3F3FB64FB6C65
:102E9000002BE3D197F84B30BA68134400221A7024
:102EA00097F84A307B6425E0BA687B6C13441B7842
:102EB00087F8433097F84B207B6CD21A97F84A304A
:102EC0001344013BBA681A44B9687B6C0B4492F90D
:102ED00000201A7097F84B207B6CD21A97F84A3072
:102EE0001344013BBA68134497F843201A707B6C73
:102EF00001337B6497F84B2097F84A3013445B0802
:102F00007A6C9A42D0D397F8573018465C37BD4652
:102F1000B0BC7047100E0801240E0801380E0801DD
:102F200080B594B000AFC7E902017A603B60A84A5F
:102F300007F1140307CA03C31A800233120C1A7074
:102F4000002387F83F300123BB630023FB779CA35A
:102F5000D3E90023C7E90C23002387F82F307B68CF
:102F6000002B03D1012387F8273022E1002387F8C3
:102F7000273095A3D3E90023D7E90201FDF794FF99
:102F80000346002B2DD0D7E90201FDF7B5FF03461C
:102F90001846FDF7ADFCD7E90223FDF75BFB0246BF
:102FA0000B46C7E91023D7E902234FF000004FF08A
:102FB0000001FDF74FFB02460B4610461946FDF790
:102FC000C3FF0346FB6497F82F305A1C87F82F2065
:102FD0001A467B6813442D221A70012387F83F306C
:102FE00012E0D7E90201FDF7AFFF0346FB64F86C7E
:102FF000FDF76EFC02460B46D7E90201FDF72AFBFE
:1030000002460B46C7E91023F96C724BA3FB012360
:10301000DA0813469B0013445B00CA1A97F82F3056
:10302000591C87F82F1019467B680B4407F1500193
:103030000A4412F93C2C1A70FB6C664AA2FB03236B
:10304000DB08FB64FB6C002BDED197F82F307A682D
:10305000134400221A7097F83F303B6223E07A68ED
:103060003B6A13441B78FB7797F82F203B6AD21AF0
:1030700097F83F301344013B7A681A4479683B6AF9
:103080000B4492F900201A7097F82F203B6AD21A4D
:1030900097F83F301344013B7A681344FA7F1A7063
:1030A0003B6A01333B6297F82F2097F83F30134477
:1030B0005B083A6A9A42D2D300233B620DE040A3F8
:1030C000D3E90023D7E90C01FDF77CFC02460B464F
:1030D000C7E90C233B6A01333B623A6A3B689A4278
:1030E000EDD9D7E90C23D7E91001FDF7B5FA02466F
:1030F0000B46C7E9102300233B6213E04FF00002A8
:10310000354BD7E91001FDF75DFC02460B46C7E9D8
:103110001023BA6B13469B0013445B00BB633B6AEE
:1031200001333B623A6A3B689A42E7D3D7E9100120
:10313000FDF70AFF0346BB6297F82F305A1C87F849
:103140002F201A467B6813442E221A7000233B62FC
:1031500025E0BB6B1F4AA2FB0323DB08BB63BB6BF1
:10316000002B19D0BA6ABB6BB2FBF3F3DBB230337E
:10317000DAB297F82F30591C87F82F1019467B6860
:103180000B4452B21A70BB6ABA6BB3FBF2F2B96B62
:1031900001FB02F29B1ABB623B6A01333B623A6A53
:1031A0003B689A42D5D397F82F307A6813440022AF
:1031B0001A7097F8273018465037BD4680BD00BFBB
:1031C0009A9999999999B93F3A8C30E28E79453E0E
:1031D000380E0801CDCCCCCC00002440B0B598B05E
:1031E00000AFC7E902017A60FB70012387F85F3006
:1031F000644B07F134041D460FCD0FC42B682370B8
:10320000614B07F120041D460FCD0FC42B682370BE
:103210005E4A07F1140307CA03C31A800233120C73
:103220001A70002387F84F30002387F84E300023B0
:1032300087F847307B68002B03D1012387F85F3084
:103240009AE0002387F85F30FB780A2B29D197F8A2
:103250007430002B25D0D7E90223002A73F1000334
:1032600017DAD7E90223524263EB4303C7E9142379
:1032700097F84F305A1C87F84F201A467B68134442
:103280002D221A70012387F84E3007F11403BB6515
:1032900016E0D7E90223C7E9142307F11403BB653D
:1032A0000EE097F87030012B03D107F13403BB65B2
:1032B00002E007F12003BB65D7E90223C7E9142325
:1032C000FA784FF00003D7E91401FEF751F9BB6D0E
:1032D0001A4497F84F30591C87F84F1019467B68ED
:1032E0000B4492F900201A70FA784FF00003D7E9E6
:1032F0001401FEF73DF902460B46C7E91423D7E94E
:1033000014231343DCD197F84F307A68134400221A
:103310001A7097F84E30BB6425E07A68BB6C134492
:103320001B7887F8473097F84F20BB6CD21A97F874
:103330004E301344013B7A681A447968BB6C0B44E5
:1033400092F900201A7097F84F20BB6CD21A97F8A8
:103350004E301344013B7A68134497F847201A70A3
:10336000BB6C0133BB6497F84F2097F84E30134481
:103370005B08BA6C9A42D0D397F85F301846603732
:10338000BD46B0BD100E0801240E0801380E08011C
:1033900080B598B000AFC24B7B65C24A7B6DD31A33
:1033A0003B65C14BFB64C14AFB6CD31ABB64C04B89
:1033B0003B643B6C5B6903F40033B3F5003F0CBF27
:1033C00001230023DBB2012B14D1B94BFB63BFF304
:1033D0004F8FBFF36F8FFB6B5B6923F40032FB6B86
:1033E0005A61FB6B0022C3F85022BFF34F8FBFF32B
:1033F0006F8F00BFAE4BBB63BB6B5B6903F4803365
:10340000B3F5803F0CBF01230023DBB2012B37D182
:10341000A74B7B637B6B0022C3F88420BFF34F8FE5
:103420007B6B5B6923F480327B6B5A61BFF34F8FF8
:103430007B6BD3F880303B633B6B5B0BC3F30E03BA
:10344000FB623B6BDB08C3F30903BB62FB6A5A01F7
:1034500043F6E0731340BA6A92071A437B6BC3F8D2
:103460007422BB6A5A1EBA62002BEFD1FB6A5A1E45
:10347000FA62002BE5D1BFF34F8FBFF36F8F00BF10
:1034800000F074FA00233B601F233B7103237B7120
:103490000123BB710023FB7100233B7200237B726D
:1034A0000023BB720023FB7200233B7300237B735A
:1034B0000023BB730023FB7300233B7400237B7446
:1034C0000023BB743B461946002000F0ADFA0346CA
:1034D00087F8473097F84730002B02D000F046FAC3
:1034E0003EE24FF080733B6016233B7106237B71F5
:1034F0000023BB710023FB7100233B7201237B720D
:103500000023BB723B461946012000F08DFA0346AA
:1035100087F8473097F84730002B02D000F026FAA2
:103520001EE24FF080633B6011233B7106237B71E9
:103530000123BB710123FB7100233B7200237B72CB
:103540000023BB720023FB7200233B7300237B73B9
:103550000023BB730023FB7300233B7400237B74A5
:103560000023BB743B461946022000F05DFA034677
:1035700087F8473097F84730002B02D000F0F6F973
:10358000EEE14C4B3B6010233B7106237B71012322
:10359000BB710123FB7100233B7200237B7200236C
:1035A000BB720023FB7200233B7300237B73002359
:1035B000BB730023FB7300233B7400237B74002345
:1035C000BB743B461946032000F02EFA034687F8E9
:1035D000473097F84730002B02D000F0C7F9BFE121
:1035E0004FF090633B6010233B7106237B710023F7
:1035F000BB710123FB7100233B7200237B7200230C
:10360000BB720023FB7200233B7300237B730023F8
:10361000BB730023FB7300233B7400237B740023E4
:10362000BB743B461946042000F0FEF9034687F8B8
:10363000473097F84730002B02D000F097F98FE120
:1036400000233B600F233B7106237B710023BB717A
:103650000123FB7100233B7200237B720023BB72AA
:103660000023FB7200233B7300237B730023BB7397
:103670000023FB7300233B7400237B740023BB7483
:103680003B461946052000F0CFF9034687F847303E
:1036900097F84730002B0FD000F068F960E100BFC9
:1036A000000004218412052100000821A423082120
:1036B00000ED00E0000004044FF000533B601023D5
:1036C0003B7103237B710023BB710123FB7100233A
:1036D0003B7200237B720023BB720023FB7200232A
:1036E0003B7300237B730023BB730023FB73002316
:1036F0003B7400237B740023BB743B4619460620B1
:1037000000F092F9034687F8473097F84730002BCE
:1037100002D000F02BF923E14FF004533B60132358
:103720003B7103237B710123BB710023FB710023D9
:103730003B7201237B720023BB720023FB720023C8
:103740003B7300237B730023BB730023FB730023B5
:103750003B7400237B740123BB743B46194607204E
:1037600000F062F9034687F8473097F84730002B9E
:1037700002D000F0FBF8F3E00823BB653B6D002BA3
:103780004BD00023FB6502E0FB6D0133FB653A6D16
:10379000FB6D22FA03F3012BF6D87B6D3B6002220E
:1037A000FB6D02FA03F33A6D9A4204D1FB6DDBB272
:1037B000013BDBB201E0FB6DDBB23B710123BB716E
:1037C00003237B710123FB7100233B7200237B7277
:1037D0000023BB720023FB7200233B7300237B7327
:1037E0000023BB730023FB7300233B7400237B7413
:1037F0000023BB74BB6D5A1CBA65DBB23A46114656
:10380000184600F011F9034687F8473097F847301B
:10381000002B02D000F0AAF8A2E0BB6C002B4BD02A
:103820000023FB6502E0FB6D0133FB65BA6CFB6DA9
:1038300022FA03F3012BF6D8FB6C3B600222FB6DEE
:1038400002FA03F3BA6C9A4204D1FB6DDBB2013B7E
:10385000DBB201E0FB6DDBB23B710123BB710323E3
:103860007B710123FB7100233B7200237B720023D9
:10387000BB720023FB7200233B7300237B73002386
:10388000BB730023FB7300233B7400237B74002372
:10389000BB74BB6D5A1CBA65DBB23A46114618467A
:1038A00000F0C2F8034687F8473097F84730002BFE
:1038B00002D000F05BF853E0022000F073F82A4BCE
:1038C0003B623B6A0022C3F88420BFF34F8F3B6A00
:1038D000D3F88030FB61FB695B0BC3F30E03BB6164
:1038E000FB69DB08C3F309037B61BB695A0143F63B
:1038F000E07313407A6992071A433B6AC3F8602267
:103900007B695A1E7A61002BEFD1BB695A1EBA61DE
:10391000002BE5D1BFF34F8F3B6A5B6943F48032E4
:103920003B6A5A61BFF34F8FBFF36F8F00BF0E4BDF
:103930007B62BFF34F8FBFF36F8F7B6A0022C3F8A8
:103940005022BFF34F8FBFF36F8F7B6A5B6943F4E5
:1039500000327B6A5A61BFF34F8FBFF36F8F00BF96
:103960006037BD4680BD00BF00ED00E080B483B08D
:1039700000AFBFF35F8F094B5B6A084A23F48033C3
:10398000536200BF00237B60054A7B68536000BF21
:1039900000BF0C37BD4680BC704700BF00ED00E0A3
:1039A00090ED00E080B485B000AF0346FB71FB7979
:1039B000032B17D801A252F823F000BFDF39000112
:1039C000CD390001D3390001D93900010223FB6050
:1039D0000BE00423FB6008E00623FB6005E0002306
:1039E000FB6002E00023FB6000BFFB6803F00603FE
:1039F00043F00103BB600A4ABB68536000BF094B38
:103A00005B6A084A43F48033536200BFBFF34F8FB1
:103A1000BFF36F8F00BF1437BD4680BC704700BF37
:103A200090ED00E000ED00E080B489B000AF034607
:103A30003960FB710023FB773B68002B10D0FB79CA
:103A40000F2B0DD83B681B6803F01F03002B07D119
:103A50003B681B79032B03D93B681B791F2B02D9C9
:103A60000123FB7765E03B68DB7A1A463B681B7BEA
:103A70005B001A433B685B7B9B001A433B689B7B64
:103A8000DB001A433B68DB7B1B011A433B681B7C52
:103A90005B011A433B685B7C9B011A433B689B7C40
:103AA000DB011343DBB2BB613B689B791B0703F06F
:103AB00080523B685B791B0603F0E0631A433B6866
:103AC000DB79DB0403F460131A433B681B7A9B0425
:103AD00003F480231A433B685B7A5B0403F40033EE
:103AE0001A433B689B7A1B0403F480331A43BB6977
:103AF0001B029BB21A433B681B795B0003F03E0339
:103B0000134343F001037B61FB79FB720C4AFB7AA0
:103B1000936000BF3B681B6823F01F03FB60084AEB
:103B2000FB68D36000BF7B693B61054A3B69136159
:103B300000BFFB7F18462437BD4680BC704700BFDE
:103B400090ED00E090B484B000AFEFF310831C461A
:103B50002346FB60FB6803F00103002B00D172B623
:103B6000104B1B685B0C03F007037B607B68DBB2C8
:103B7000BB600D4ABB6852F82330002B04D10B49BF
:103B8000BB68FA6841F82320074ABB6852F8233023
:103B90005A1C0549BB6841F8232000BF1037BD46B9
:103BA00090BC7047040008E08C270021802700218A
:103BB00080B483B000AF134B1B685B0C03F00703AA
:103BC0003B603B68DBB27B600F4A7B6852F8233076
:103BD0005A1E0D497B6841F823200C4A7B6852F835
:103BE000233003F00103002B06D1074A7B6852F80B
:103BF0002330002B00D162B600BF0C37BD4680BC1D
:103C0000704700BF040008E08C27002180270021B6
:103C100080B588B000AF786039607B681B78BB776F
:103C2000BB7FDB007B773B681A6ABB7F13441B7842
:103C30003B777B7FFB7726E03B68DA69FB7F1344A9
:103C40001B78FB76FB7EFF2B1AD03B681968FA7E47
:103C500013469B0013449B000B447B61FB7E174A79
:103C600032F813003B68D9683A7F13461B011344AE
:103C70009B000B441B7F1A46014678692BF0B0F974
:103C8000FB7F0133FB77FA7F7B7F08339A42D3D3E4
:103C9000BB7FFB74FB7C0A4A52F82330FB60FB6855
:103CA000D3F8983043F40072FB68C3F8982000BF43
:103CB00000BF00BF2037BD4680BD00BFE000082127
:103CC0008435080180B500AF01204EF027F8034687
:103CD000184680BD80B500AF01204EF087F803463E
:103CE000184680BD80B500AF01204DF0DBF80346DB
:103CF000184680BD80B500AF01204DF053F9034652
:103D0000184680BD80B483B000AF7860034A7B68FA
:103D1000136000BF0C37BD4680BC7047D00C01213A
:103D200080B483B000AF786000BF0C37BD4680BC64
:103D3000704780B489B000AF78600023FB771AE049
:103D40007B68BB61FB7FFB750023BB7500237B7524
:103D5000FB7DBA69D35CBB7DDB01D9B27B7D03F00F
:103D60007F03DAB2FB7D0A43D1B2BA69D15400BFF6
:103D7000FB7F0133FB77FB7F1F2BE1D90023FB7710
:103D800022E07B683B61FB7FFB730023BB733B69D5
:103D900093F82030DAB2FB7B012101FA03F3DBB2A6
:103DA000DB43DBB21340DAB2BB7B03F00101FB7BE8
:103DB00001FA03F3DBB21343DAB23B6983F8202044
:103DC00000BFFB7F0133FB77FB7F032BD9D900BFFB
:103DD00000BF2437BD4680BC7047000080B49BB054
:103DE00000AF03463960FB71B24B1B685B0C03F0FC
:103DF00007033B653B6DDBB287F86330AE4A07F1E2
:103E0000080392E8030083E80300FB79AB4A52F809
:103E10002330FB65FB799B0007F16802134453F8DC
:103E2000603CBB6597F86330012B01D8032300E0A9
:103E3000012387F8573000237B666EE13B685968A1
:103E40007A6E13469B0013449B000B441B7897F833
:103E500063209A4240F05E813B6859687A6E13464F
:103E60009B0013449B000B441B79012B25D13B681D
:103E700059687A6E13469B0013449B000B445A7892
:103E8000FB6DFB64134687F84B3097F84B30FA6CA8
:103E90005B011A4441F21C0313441B889AB297F841
:103EA0004B3042F0020291B2FA6C5B011A4441F2CB
:103EB0001C0313440A461A8025E03B6859687A6E51
:103EC00013469B0013449B000B445A78FB6D7B64A4
:103ED000134687F8433097F843307A6C5B011A44F5
:103EE00041F21C0313441B889AB297F8433022F026
:103EF000020291B27A6C5B011A4441F21C03134432
:103F00000A461A8000BF3B6859687A6E13469B00C8
:103F100013449B000B449B79012B15D13B685968D6
:103F20007A6E13469B0013449B000B445A78FB6D3A
:103F3000FB63134687F83B3097F83B3003F01F03D1
:103F4000DAB2FB6B5A7615E03B6859687A6E134615
:103F50009B0013449B000B445A78FB6D7B63134614
:103F600087F8333097F8333003F01F03DAB27B6BF6
:103F70001A7600BF3B6859687A6E13469B0013445B
:103F80009B000B4458783B6859687A6E13469B0037
:103F900013449B000B445A79FB6D7B62034687F800
:103FA0002330134687F8223097F823307A6A5B0172
:103FB0001A4441F21C0313441B889BB223F00403F0
:103FC00099B297F822309BB29B009BB203F0040396
:103FD0009AB297F823300A4391B27A6A5B011A4485
:103FE00041F21C0313440A461A8000BF3B6859681B
:103FF0007A6E13469B0013449B000B4458783B6831
:1040000059687A6E13469B0013449B000B44DA7880
:10401000BB6DFB62034687F82B30134687F82A30C6
:10402000FB6A93F82030DAB297F82B30012101FABD
:1040300003F3DBB2DB43DBB21340DAB297F82A308A
:1040400003F0010197F82B3001FA03F3DBB21343BD
:10405000DAB2FB6A83F8202000BF3B6859687A6EA9
:1040600013469B0013449B000B44DB79002B27D1A4
:104070003B6859687A6E13469B0013449B000B44BF
:104080005A78BB6DFB611346FB760023BB76002399
:104090007B76FB7EFA69D35CBB7EDB01D9B27B7E8B
:1040A00003F07F03DAB2FB7E0A43D1B2FA69D1543E
:1040B00030E000BF040008E0740E0801A01E0801F3
:1040C0003B6859687A6E13469B0013449B000B446F
:1040D00058783B6859687A6E13469B0013449B00DE
:1040E0000B44DA79BB6D7B610346FB740123BB741F
:1040F00013467B74FB7C7A69D35CBB7CDB01D9B251
:104100007B7C03F07F03DAB2FB7C0A43D1B27A698D
:10411000D15400BF7B6E01337B6697F857307A6EBF
:104120009A42FFF48BAE00BF00BF6C37BD4680BC27
:10413000704700BF80B584B000AF7860124B1B6839
:104140005B0C03F00703BB60BB68DBB2FB600F498D
:10415000FA681346DB0013449B000B4410331B68C2
:1041600001221A710949FA681346DB0013449B00C7
:104170000B4418331B681B68184667F095FE00BF98
:104180001037BD4680BD00BF040008E0141A0801C6
:1041900080B485B000AF78600C4B1B685B0C03F0FB
:1041A0000703BB60BB68DBB2FB600949FA681346D2
:1041B000DB0013449B000B4414331B6801221A716B
:1041C00000BF1437BD4680BC704700BF040008E044
:1041D000141A080180B483B000AF124B1B685B0C4B
:1041E00003F007033B603B68DBB27B600E497A68F3
:1041F0001346DB0013449B000B4418331B68032257
:104200005A6009497A681346DB0013449B000B444B
:1042100018331B6800221A7200BF0C37BD4680BCE1
:10422000704700BF040008E0141A080180B483B08E
:1042300000AF0C4B1B685B0C03F007033B603B6853
:10424000DBB27B6008497A681346DB0013449B00AD
:104250000B4418331B685B68DBB218460C37BD464D
:1042600080BC7047040008E0141A080180B483B0D1
:1042700000AF0F4B1B685B0C03F007033B603B6810
:10428000DBB27B60BFF34F8FBFF35F8FBFF36F8FE6
:1042900008497A681346DB0013449B000B4418332B
:1042A0001B681B7ADBB218460C37BD4680BC7047D2
:1042B000040008E0141A080180B582B000AF0A4B70
:1042C0007B6002E07B68013B7B60FFF7CFFF03462A
:1042D000002B02D17B68002BF4D1FFF7C7FF034608
:1042E00018460837BD4680BD40420F0080B487B0F5
:1042F00000AFF860B9607A600023FB75FB68002BA3
:1043000006D0FB68BA681A60FB687A685A6001E0F8
:104310000223FB75FB7D18461C37BD4680BC7047E9
:1043200080B582B000AF786039603B68DA68064BD0
:1043300013433A6819467868FFF7D8FF03461846D2
:104340000837BD4680BD00BF00005DB580B582B0B6
:1043500000AF786039603B681A4604497868FFF717
:10436000C5FF034618460837BD4680BD0000F0640F
:1043700080B582B000AF786039603B681A46044966
:104380007868FFF7B3FF034618460837BD4680BD7F
:10439000000022A580B582B000AF786039603B682C
:1043A0001A4604497868FFF7A1FF03461846083704
:1043B000BD4680BD00001E6E80B582B000AF786043
:1043C00039603B681A4604497868FFF78FFF034657
:1043D00018460837BD4680BD0000BEDB80B485B0FE
:1043E00000AF786039600123FB607B681B68DB43AA
:1043F0003A689A4201D80023FB607B681A683B68E0
:104400001A447B681A60FB6818461437BD4680BCA6
:10441000704780B485B000AF78600B46FB70012315
:10442000FB607B681B78C3F1FF02FB789A4201DBDB
:104430000023FB607B681A78FB781344DAB27B6850
:104440001A70FB6818461437BD4680BC704780B5AB
:1044500084B000AF786039600323FB603B68BB60C9
:10446000BB68002B14D00EE0FB689B007A681344F5
:10447000B9681846FFF7B2FFB860BB68002B06D0DA
:10448000FB68013BFB60FB68002BEDDA00E000BF3E
:10449000BB6818461037BD4680BD80B586B000AFFA
:1044A000786039600F237B6100233B613B68FB60D0
:1044B000FB68002B28D022E07A687B6913443A69B4
:1044C000D2B211461846FFF7A4FF38617A687B69BB
:1044D0001344FA68D2B211461846FFF79AFF024613
:1044E0003B6913443B61FB681B0AFB603B69002B83
:1044F00002D1FB68002B06D07B69013B7B617B69A5
:10450000002BD9DA00E000BF3B6918461837BD46DA
:1045100080BD000080B588B000AFF860B9607A60F7
:1045200000237B61BB680022DA607B68DB69002BBB
:104530004AD17B68DB6B012B08D17B681B6B0F3387
:104540001B78C3F580731B01BB6107E07B681B6BA5
:104550000C331B78C3F580731B01BB617B685B6AFE
:10456000BA699A421CD2BB687A681A607B685A6A38
:10457000BB69D21ABB685A607B689A6BBB689A6049
:104580007B685A6BBB685A61BB6800221A617B6802
:10459000BA695A627B6800229A630A23FB7726E095
:1045A000BB6800225A60BB687A681A607B689A6BA5
:1045B000BB689A607B685A6BBB685A61BB68002213
:1045C0001A610723FB7712E0BB6800225A60BB68C0
:1045D0007A681A607B689A6BBB689A607B685A6BD2
:1045E000BB685A61BB6800221A610723FB77BB686E
:1045F00003F10C027B685A637B6943F001037B6122
:104600007B689B6B5B0003F002027B68DB6B9B00AB
:1046100003F004031A437B681B6CDB0003F0080300
:1046200013437A6913437B617A69094B13437A68B0
:104630001946F868FFF75AFE0346FB74FB7C002B13
:1046400001D0FB7CFB77FB7F18462037BD4680BD41
:104650001000C6A280B588B000AF786039603B68B2
:104660001B687B6100233B613B685B68002B00F0AB
:1046700091807B69DB6B012B09D17B691A6B7B69AC
:104680005B6A1B0919461046FFF707FF08E07B69C4
:104690001A6B7B695B6A1B0919461046FFF7D7FE48
:1046A0007B69DB6B012B08D17B691B6B0F331B789C
:1046B000C3F580731B01BB6107E07B691B6B0C3387
:1046C0001B78C3F580731B01BB613B681A693B68AB
:1046D000DB681A443B681A617B691A6A7B695B6A0A
:1046E0001A447B691A627B699A6A7B695B6A1A441D
:1046F0007B699A627B69DA6A7B695B6AD21A7B6939
:10470000DA623B685A687B695A623B680022DA6069
:104710007B695B6ABA699A420BD27B695A6ABB6948
:10472000D21A3B685A607B69BA695A620A23FB77DE
:1047300008E03B6800225A603B689A687B699A638C
:104740000723FB773B6943F001033B617B699B6B6C
:104750005B0003F002027B69DB6B9B0003F0040348
:104760001A437B691B6CDB0003F0080313433A69AF
:1047700013433B613A69164B13437A6919467868CB
:10478000FFF7B4FD0346FB73FB7B002B1AD0FB7BCA
:10479000FB7717E03B681A693B68DB681A443B68A3
:1047A0001A613B680022DA603B685B69002B07D026
:1047B0003B6858693B6810330422194600F04AFCF4
:1047C0000E23FB77FB7F18462037BD4680BD00BF18
:1047D0001000C6A280B584B000AF786039603B6835
:1047E0009B6B5B0003F002023B68DB6B9B0003F0FA
:1047F00004031A433B681B6CDB0003F008031343FC
:10480000FB603B685B6B002B03D0FB6843F001034C
:10481000FB60FA68054B13433A6819467868FFF75E
:1048200065FD034618461037BD4680BD100076650D
:1048300080B582B000AF786039603B681A460449A1
:104840007868FFF753FD034618460837BD4680BD1C
:104850000000C31780B582B000AF786039603B6854
:104860001A4604497868FFF741FD034618460837A1
:10487000BD4680BD0000934E80B582B000AF786029
:1048800039603B681A4604497868FFF72FFD0346F4
:1048900018460837BD4680BDC9D8CFF480B582B070
:1048A00000AF786039603B681A4604497868FFF7C2
:1048B0001DFD034618460837BD4680BD9CE3C04A2F
:1048C00080B582B000AF786039603B681A46044911
:1048D0007868FFF70BFD034618460837BD4680BDD4
:1048E0002BB1C04A80B582B000AF786039603B68B8
:1048F0001A4604497868FFF7F9FC0346184608375A
:10490000BD4680BD7872CFF480B584B000AF7860CA
:1049100039603B689B6B5B0003F002023B68DB6B1A
:104920009B0003F004031A433B681B6CDB0003F09D
:1049300008031343FB603B685B6B002B03D0FB68F1
:1049400043F00103FB60FA68054B13433A681946CC
:104950007868FFF7CBFC034618461037BD4680BD8C
:104960000000C6A280B584B000AF786039603B68B3
:104970009B6B5B0003F002023B68DB6B9B0003F068
:1049800004031A433B681B6CDB0003F0080313436A
:10499000FB603B685B6B002B03D0FB6843F00103BB
:1049A000FB60FA68054B13433A6819467868FFF7CD
:1049B0009DFC034618461037BD4680BD0000766555
:1049C00080B582B000AF786039603B68DB6B03F084
:1049D00001023B685B6B5B0003F002031A433B6818
:1049E0009B6B9B0003F004031A43064B13433A6886
:1049F00019467868FFF77AFC034618460837BD4623
:104A000080BD00BF0000B9F080B582B000AF786013
:104A100039603B681A4604497868FFF767FC03462B
:104A200018460837BD4680BD00003D5080B584B0B3
:104A300000AFF860B9607A60BB68DB6A03F001021E
:104A4000BB681B6B5B0003F002031A437B68DB004F
:104A500003F008031A43064B1343BA681946F86873
:104A6000FFF744FC034618461037BD4680BD00BF23
:104A70000000E2FC80B584B000AFF860B9607A60F5
:104A8000BB689B6A03F00102BB68DB6A5B0003F052
:104A900002031A437B689B0003F004031A43064B8E
:104AA0001343BA681946F868FFF720FC0346184616
:104AB0001037BD4680BD00BF0000719380B584B043
:104AC00000AFF860B9607A60BB689B6A03F00102CE
:104AD000BB68DB6A5B0003F002031A437B689B0040
:104AE00003F004031A43064B1343BA681946F868E7
:104AF000FFF7FCFB034618461037BD4680BD00BFDC
:104B00000000E5CF80B586B000AFF860B9607A608C
:104B10003B600023FB7500233B61BB68DB68002B17
:104B200006D07B68002B03D03B6943F080033B61D8
:104B30003B68012B03D13B6943F008033B61FB7DDC
:104B4000002B09D13A69074B1343BA681946F86834
:104B5000FFF7CCFB0346FB75FB7D18461837BD46B7
:104B600080BD00BF00005D4680B586B000AFF86034
:104B7000B9607A603B600023FB7500233B61BB6832
:104B8000DB68002B06D07B68002B03D03B6943F029
:104B900080033B613B68012B03D13B6943F0080371
:104BA0003B61FB7D002B09D13A69074B1343BA687F
:104BB0001946F868FFF79AFB0346FB75FB7D18461C
:104BC0001837BD4680BD00BF05005D4680B586B084
:104BD00000AFF860B9607A603B600023FB7500238A
:104BE0003B61BB68DB68002B06D07B68002B03D0E1
:104BF0003B6943F080033B613B68012B03D13B6978
:104C000043F008033B61FB7D002B09D13A69074B58
:104C10001343BA681946F868FFF768FB0346FB754B
:104C2000FB7D18461837BD4680BD00BF06005D46B7
:104C300080B586B000AFF860B9607A603B60002351
:104C4000FB753B6A3B617B68012B03D13B6943F0F9
:104C500002033B613B68012B03D13B6943F008032E
:104C60003B61FB7D002B09D13A69074B1343BA68BE
:104C70001946F868FFF73AFB0346FB75FB7D1846BB
:104C80001837BD4680BD00BF0000FD4280B586B02C
:104C900002AFF860B9607A603B60002300933B6824
:104CA0007A68B968F868FFF7C3FF034618461037FB
:104CB000BD4680BD80B586B002AFF860B9607A604D
:104CC0003B60012300933B687A68B968F868FFF796
:104CD000AFFF034618461037BD4680BD80B586B08D
:104CE00002AFF860B9607A603B60012300933B68D3
:104CF0007A68B968F868FFF79BFF034618461037D3
:104D0000BD4680BD80B582B000AF786039603B6839
:104D10001A4604497868FFF7E9FA03461846083747
:104D2000BD4680BD010041DE80B582B000AF786035
:104D300039603B681A464FF4EC017868FFF7D6FA01
:104D4000034618460837BD4680BD000080B584B0D4
:104D500000AF786039600023FB730023BB60BB6841
:104D600043F00103BB60FB7B002B09D1BA68074B02
:104D700013433A6819467868FFF7B8FA0346FB739D
:104D8000FB7B18461037BD4680BD00BF000077157D
:104D900080B582B000AF786039603B681A4604493C
:104DA0007868FFF7A3FA034618460837BD4680BD6A
:104DB000F2DCCFF480B582B000AF786039603B6838
:104DC0001A4604497868FFF791FA034618460837EF
:104DD000BD4680BD000073D880B584B000AF786058
:104DE00039600023FB730023BB60BB6843F0010301
:104DF000BB60FB7B002B09D1BA68074B13433A68B1
:104E000019467868FFF772FA0346FB73FB7B184676
:104E10001037BD4680BD00BF000047D080B582B0CE
:104E200000AF786039603B681A4604497868FFF73C
:104E30005DFA034618460837BD4680BD7DA4CFF411
:104E400080B586B000AFF860B9607A6000237B61FE
:104E50007B68002B01D001237B617A69054B1343EA
:104E6000BA681946F868FFF741FA0346184618373A
:104E7000BD4680BD00009FA180B489B000AFF8603E
:104E8000B9607A603B600023FB777A6B3B6BD21A88
:104E900039687B68CB1A9A4270D8FB68002B38D1EE
:104EA000BB6A002B1BD13B6BBB617B687B6111E054
:104EB000BB6983F00303FA6A1A447B6983F0030336
:104EC000B9680B4412781A70BB690133BB617B6906
:104ED00001337B61BA697B6B9A42E9D350E03B6B4B
:104EE000BB617B687B610FE0FA6ABB691A447B692E
:104EF00083F00303B9680B4412781A70BB6901335D
:104F0000BB617B6901337B61BA697B6B9A42EBD3EE
:104F100036E0BB6A002B19D13B6BBB617B687B61C0
:104F20000FE0BB6983F00303FA6A1A44B9687B692E
:104F30000B4412781A70BB690133BB617B69013382
:104F40007B61BA697B6B9A42EBD319E03B6BBB6127
:104F50007B687B610DE0FA6ABB691A44B9687B69BA
:104F60000B4412781A70BB690133BB617B69013352
:104F70007B61BA697B6B9A42EDD301E00223FB7738
:104F8000FB7F18462437BD4680BC704780B489B08B
:104F900000AFF860B9607A603B60FB68FB61BB689A
:104FA000BB613B687B617B683B61BA68FB689A4286
:104FB0004BD03B69002B48D07B69002B18DBFA688B
:104FC000BB689A4211D9FA693B691344FB61BA691B
:104FD0003B691344BB61FB69013BFB61BB69013B5E
:104FE000BB614FF0FF337B612CE001237B6129E043
:104FF000FA68BB689A4212D23B695B42FA69134471
:10500000FB613B695B42BA691344BB61FB690133D5
:10501000FB61BB690133BB6101237B6112E04FF08F
:10502000FF337B610EE0BB691A78FB691A707B69FC
:10503000FA691344FB617B69BA691344BB613B693C
:10504000013B3B613B69002BEDD100BF2437BD46DE
:1050500080BC704780B584B000AFF860B9607A60FA
:1050600001237A68B968F868FFF790FF00BF10372E
:10507000BD4680BD80B487B000AFF8600B467A6053
:10508000FB72FB683B6100237B6107E03A697B6947
:105090001344FA7A1A707B6901337B617A697B6801
:1050A0009A42F3D300BF00BF1C37BD4680BC704797
:1050B00080B48BB000AFF860B9607A60FB687B6247
:1050C000BB683B627B68BB610023FB6115E07B6AC8
:1050D0001B787B613B6A1B783B617A693B69D31A19
:1050E000FB61FB69002B0CD1BB69013BBB617B6A97
:1050F00001337B623B6A01333B62BB69002BE6D123
:1051000000E000BFFB6918462C37BD4680BC7047E5
:1051100080B485B000AF03463960FB710023FB7299
:10512000FB79082B2FD801A252F823F0515100012E
:10513000575100015D5100016351000169510001A7
:105140006F510001755100017B5100018151000137
:105150001023FB601CE01423FB6019E01C23FB60A0
:1051600016E02023FB6013E03023FB6010E04023B7
:10517000FB600DE01C23FB600AE02023FB6007E0DE
:105180002023FB6004E00023FB600223FB7200BFCE
:105190003B68002B02D03B68FA681A60FB7A18461D
:1051A0001437BD4680BC704780B485B000AF7860CE
:1051B00039600023FB600DE0FB689B007A681344B4
:1051C0001A68FB689B0079680B4412BA1A60FB6886
:1051D0000133FB60FA683B689A42EDD300BF00BF21
:1051E0001437BD4680BC704780B489B000AFF8600A
:1051F000B9607A603B60BB68FB61BB68BB617B6880
:105200007B61FB68012B0ED105E0FB690133FB617B
:105210007B69013B7B61FB691B78002B35D17B6986
:10522000002BF2D131E0BB6803F00303032B23D141
:1052300005E0FB690433FB617B69043B7B617B69AF
:10524000032B20D9FB691B78002B1CD1FB69013390
:105250001B78002B17D1FB6902331B78002B12D16E
:10526000FB6903331B78002BE3D00CE0BB690433EC
:10527000BB617B69043B7B61BB691B68002B02D16E
:105280007B69032BF2D8BB69FB613B68002B02D022
:105290003B68FA691A60BB6A002B02D0BB6A7A6964
:1052A0001A6000BF2437BD4680BC704780B58AB005
:1052B00000AFF860B9607A603B6000237B627B6876
:1052C0007B613B68BB61BB689B00BA699A4202D9AB
:1052D000BB689B00BB61BB699B083B617B6803F0BB
:1052E0000303002B28D1BB6B002B20D00DE07B6A81
:1052F0009B007A6913441A687B6A9B00F9680B4427
:1053000012BA1A607B6A01337B627A6A3B699A42FD
:10531000EDD36BE07B6A9B007A691A447B6A9B0041
:10532000F9680B4412681A607B6A01337B627A6AFF
:105330003B699A42EED359E0BB6B002B52D026E07A
:105340007B6A9A007B681344FB61FB6903331B781B
:105350003B623B6A1B02FA690232127813433B62DA
:105360003B6A1B02FA690132127813433B623B6AC3
:105370001B02FA69127813433B627B6A9B00FA684E
:1053800013443A6A12BA1A607B6A01337B627A6A02
:105390003B699A42D4D329E07B6A9A007B68134424
:1053A000FB61FB6903331B783B623B6A1B02FA69B2
:1053B0000232127813433B623B6A1B02FA690132E4
:1053C000127813433B623B6A1B02FA69127813435B
:1053D0003B627B6A9B00FA6813443A6A1A607B6AF4
:1053E00001337B627A6A3B699A42D5D37B6AFB615F
:1053F000BB6903F003033B613B69002B71D03B6940
:10540000C3F104033B617B6903F00303002B06D166
:105410007B6A9B007A6913441B683B621CE07B6AD1
:105420009A007B681344BB61BB6903331B783B6202
:105430003B6A1B02BA690232127813433B623B6A31
:105440001B02BA690132127813433B623B6A1B02AA
:10545000BA69127813433B627B6B002B17D03B6910
:10546000DB003A6A02FA03F33B6200237B6209E045
:105470003B6A1A0A97F830301B0613433B627B6A7B
:1054800001337B627A6A3B699A42F1D315E03B694A
:10549000DB003A6A22FA03F33B6200237B6208E0F6
:1054A0003B6A1A0297F8303013433B627B6A013340
:1054B0007B627A6A3B699A42F2D3BB6B002B07D0BE
:1054C000FB699B00FA6813443A6A12BA1A6005E055
:1054D000FB699B00FA6813443A6A1A60FB6901335E
:1054E000FB61FB699B00FA68D018BB689A00FB69F6
:1054F0009B00D21A97F830301946FFF7BBFD00BF6A
:105500002837BD4680BD80B586B000AFF860B96071
:105510007A603B6000237B61FB68002B52D07B6884
:10552000002B38D002E07B6901337B617A69BB686C
:105530009A4211D27A693B689A420DD27B699B00EC
:10554000FA6813441B68002B06D17B699B007A68BC
:1055500013441B68002BE6D07B69002B32D07B699B
:105560009B00FA68D118BA687B69D31A9B001A4667
:10557000F868FFF76FFD7B699B007A68D1183A687D
:105580007B69D31A9B001A467868FFF763FD19E020
:105590007B6901337B617A69BB689A4203D87A6977
:1055A0003B689A42F4D97B69002B0BD07B699B0046
:1055B000FA68D118BA687B69D31A9B001A46F86852
:1055C000FFF748FD7B695B0018461837BD4680BD74
:1055D00080B483B000AF78607B6805229A627B68F4
:1055E0000022DA617B6800221A6200BF0C37BD46D8
:1055F00080BC704780B586B000AF78607B68DB699F
:105600003B610023FB757B6893F82430FB7378685B
:10561000FFF7DEFF3B69012B07D1FB7B012B04D198
:105620007B681B6998470346FB75FB7D1846183756
:10563000BD4680BD80B586B000AF78607B68DB6911
:105640003B610023FB757B6893F82430FB7378681B
:10565000FFF7BEFF3B69012B07D1FB7B012B04D178
:105660007B681B6998470346FB75FB7D1846183716
:10567000BD4680BD80B582B000AF786039603B68C0
:105680001A687B681A603B685A687B685A603B6896
:105690009A687B689A603B68DA687B68DA603B6886
:1056A0001A697B681A613B685A697B685A613B6872
:1056B0009A697B689A617868FFF78AFF00BF0837AC
:1056C000BD4680BD80B485B000AF78600023BB606C
:1056D0000023FB737B68DB69BB60BB68002B15D1C3
:1056E0007B680122DA617B6808221A627B680022EB
:1056F00083F824207B689C33033323F003031A468A
:105700007B68C3F888200023FB7301E00B23FB7345
:10571000FB7B18461437BD4680BC704780B584B00B
:1057200000AF78607B68DB69BB600023FB73BB68FC
:10573000012B09D17B681B6A082B05D17868FFF71C
:1057400059FF0346FB7301E00B23FB73FB7B1846F9
:105750001037BD4680BD80B586B000AFF860B96037
:105760007A600023FB7500233B61FB68002B00F08F
:10577000A880BB68002B00F0A480BB68DB69002B0D
:1057800000F09F80BB681B6A002B00F09A80BB680A
:10579000DB6A012B0BD0BB681B6A032B40F29180A4
:1057A000BB681B6A03F00303002B40F08A80FB6890
:1057B000DB693B613B69012B7ED1FB681B6A082BCF
:1057C0007AD1FB6893F82430012B72D0FB68D3F8B0
:1057D00088304FF0FF321A60FB68D3F888307A685F
:1057E0005A60BB68DA69FB68C3F88C20BB681B6A27
:1057F000102B04D9FB681022C3F8902004E0BB688A
:105800001A6AFB68C3F89020BB685A6AFB68C3F841
:105810009420FB68D3F888300833B9681C221846F6
:10582000FFF718FCFB68D033033323F00302FB6857
:10583000D3F888305A62FB68D3F88830BA68926A25
:105840009A62FB68D3F888300022DA62BB68DB6AB0
:10585000012B04D1FB680122C3F8982003E0FB6808
:105860000022C3F89820FB6803F18000FB68D3F89E
:105870008810BB681B6B1A46FFF7FCF80346FB75E4
:10588000FB7D002B1BD1FB68012283F82420FB68E1
:105890009B68FA688032104698470346FB75FB7D8B
:1058A000002B0CD0FB68022283F824200F23FB7509
:1058B00005E00123FB7502E00B23FB7503E000BF4D
:1058C00001E00223FB75FB7D18461837BD4680BDFD
:1058D00080B584B000AF78607B68D3F888301B68EF
:1058E000002B2FD17B68D3F89830012B08D17B682F
:1058F000D033033323F0030304211846FFF754FC8D
:105900007B68D3F88C007B68D3F88830596A7B6851
:10591000D3F890301A46FFF79DFB7B68D3F894309C
:10592000002B08D07B68D3F894007B689033042266
:105930001946FFF78FFB0023FB737B68022283F875
:10594000242005E00C23FB737B68022283F82420CB
:10595000FB7B18461037BD4680BD80B485B000AFD4
:1059600078600023BB600023FB737B68DB69BB604E
:10597000BB68002B15D17B680122DA617B680922A4
:105980001A627B68002283F824207B689C330333EF
:1059900023F003031A467B68C3F888200023FB73B7
:1059A00001E00B23FB73FB7B18461437BD4680BC1C
:1059B000704780B584B000AF78607B68DB69BB60FE
:1059C0000023FB73BB68012B09D17B681B6A092B81
:1059D00005D17868FFF70EFE0346FB7301E00B2349
:1059E000FB73FB7B18461037BD4680BD80B586B083
:1059F00000AFF860B9607A600023FB7500233B615B
:105A0000FB68002B00F0A880BB68002B00F0A4808E
:105A1000BB68DB69002B00F09F80BB681B6A002B12
:105A200000F09A80BB68DB6A012B0BD0BB681B6A55
:105A3000032B40F29180BB681B6A03F00303002B29
:105A400040F08A80FB68DB693B613B69012B7ED1BA
:105A5000FB681B6A092B7AD1FB6893F82430012B71
:105A600072D0FB68D3F888304FF0FF321A60FB68C1
:105A7000D3F888307A685A60BB68DA69FB68C3F883
:105A80008C20BB681B6A202B04D9FB682022C3F83A
:105A9000902004E0BB681A6AFB68C3F89020BB68DA
:105AA0005A6AFB68C3F89420FB68D3F8883008333F
:105AB000B9681C221846FFF7CDFAFB68D0330333D0
:105AC00023F00302FB68D3F888305A62FB68D3F8EE
:105AD0008830BA68926A9A62FB68D3F888300022EC
